:020000040800F2
:10000000E0360020A501000831470008A9020008D9
:100010002D470008490C0008D963000800000000C3
:10002000000000000000000000000000B701000810
:10003000150D000800000000F70100083D4F000802
:10004000BF010008BF010008BF010008BF01000890
:10005000BF010008BF010008BF010008BF01000880
:10006000BF010008BF010008BF010008BF01000870
:100070008D0C0008A50C0008BF010008BF01000896
:10008000BF010008BF010008BF010008BF01000850
:10009000BF010008BF010008BF010008BF01000840
:1000A000BF010008A9530008BF010008BF010008F4
:1000B000BF0100080000000000000000BF010008B0
:1000C000BF010008BF010008BF010008BF01000810
:1000D000BF01000881630008BF010008A963000890
:1000E000BF010008BF010008000000000000000080
:1000F0000000000000000000000000000000000000
:1001000000000000BF01000800000000BF0100085F
:100110000000000000000000C1530008BF010008FB
:10012000BF010008BF010008BF010008BF010008AF
:10013000BF010008000000000000000000000000F7
:10014000BF010008BF010008BF0100080000000057
:10015000BF010008BF010008BF010008BF0100087F
:10016000BF010008BF010008BF0100080000000037
:10017000BF010008BF0100080000000000000000EF
:10018000BF010008BF010008BF010008DFF810D060
:1001900000F024FB0048004735090008AFF3008059
:1001A000E03600200648804706480047FEE7FEE7A5
:1001B000FEE7FEE7FEE7FEE7FEE7FEE7FEE7FEE717
:1001C000A15000088D010008EFF3108072B670474F
:1001D00080F310887047424A1368012B04D04FF017
:1001E000010313603F4A10603F4A11603F484FF0DF
:1001F000805101607047EFF3108272B63848016891
:1002000051B34FF0000101603648016891B1EFF33E
:1002100009811EF0100F08BF21ED108B21E9F00FAE
:100220004FF000041EF0100F08BF012441F8044DE8
:10023000006801602C490968096808C9B1E8F00F35
:10024000002B18BF00F05AB881F309884EF0100E49
:10025000002B18BF2EF0100E82F310884EF0040E03
:10026000704721490860EFF3148222F0040282F300
:1002700014881C494FF00000086019494FF0010034
:1002800008601B481B49D0F8002041EA02010160C8
:1002900016484FF08051016017480068006880F3ED
:1002A000088861B662B670471EF0040F0CBFEFF30A
:1002B0000880EFF3098020E9F00F40F804ED40F8E2
:1002C00004ED1EF0040F0CBF80F3088880F309884A
:1002D00000B506F0D1FF5DF804EB4EF0040E704758
:1002E00030010020280100202C01002004ED00E056
:1002F00020ED00E00000FFFF08ED00E0B1EC088B0E
:10030000B1EC08CBFFF7A0BF2DE9F05F0546002058
:1003100092469B4688460646814640241BE0284676
:1003200041464746224600F086F853465A46C01AD0
:10033000914110D311461846224600F06DF82D1A4F
:1003400067EB01084F4622460120002100F064F8C7
:1003500017EB00094E41201EA4F10104DFDC4846E2
:1003600031462A46434600F000B830BCBDE8C09F85
:10037000D2B201E000F8012B491EFBD270470022E7
:10038000F6E710B513460A4604461946FFF7F0FF94
:10039000204610BD30B505462A460B4612F8010B23
:1003A00013F8014B08B1A042F8D01CB1002802D0CC
:1003B0006D1CF1E7284630BD421C10F8011B0029D6
:1003C000FBD1801A704700F0004230F000400AD0A4
:1003D000C10D01F56071C0F3160042EA0151C20877
:1003E00040071143704700200146704730B50B4667
:1003F000014600202022012409E021FA02F59D4255
:1004000005D303FA02F5491B04FA02F52844151E28
:10041000A2F10102F1DC30BD202A04DB203A00FA0F
:1004200002F1002070479140C2F1200320FA03F34B
:10043000194390407047202A04DB203A21FA02F049
:100440000021704721FA02F3D040C2F1200291400E
:100450000843194670472DE9FE4F804681EA0300A4
:10046000C00F0C46009021F0004123F00045B8EB8E
:100470000200A94105D24046214690461C460B4643
:10048000024623F00040104347D0270DC7F30A006F
:10049000C3F30A510290401A019040286BDAC3F36B
:1004A000130040F4801B0098924620B10023D2EB49
:1004B000030A63EB0B0B01985946C0F1400250460A
:1004C000FFF7AAFF06460D4650465946019A00F02E
:1004D00097F910EB08006141002487EA115284EA81
:1004E000E7731A4340D0009A62B3019A012A4FEA97
:1004F000075215DC001B61EB02014FF0004202EADB
:100500000752CDE90042001C41F5801132462B46CE
:1005100000F097F903B000F045B840462146F9E7EE
:10052000001B61EB0201001C41F5801300185B41C8
:100530002018A2F5001747EB030140EAD570B61961
:100540006D4111E06D084FEA360645EAC0754FEA85
:100550000752001B61EB0201001C41F580114908A4
:100560004FEA30000019514132462B4603B000F0EB
:100570001CB800F057B90098012240000023D0EBCE
:10058000020263EBE073009821464FEAE074B8EB97
:10059000000061EB0401E9E783F000435BE781F0D1
:1005A000004158E730BCBDE8C08F30BCBDE8C04F4B
:1005B000FFF7DFBF2DE9FE4F81EA030404F000449A
:1005C00021F0004100944FF0000B23F0004350EA6B
:1005D00001045ED052EA03045BD0C3F30A54C1F3B2
:1005E0000A552C44A4F2F3340194A0FB0254C1F345
:1005F000130141F48011C3F3130343F4801301FB8F
:10060000024400FB034E840A970A44EA815447EAF5
:100610008357A4FB076802958D0A05FB07854FEAFF
:10062000932C04FB0C542705029D4FEA065847EA19
:100630001637B5EB08056EEB070C870E920E47EAEE
:10064000811742EA8312A7FB0201B6EB0B0164EBB0
:1006500000042B0D43EA0C335E1844EB1C50DA46C1
:100660005146E7FB0201C5F313044FEA0B3343EA9B
:1006700014534FEA0432019C43EA0603A4F10C042C
:100680000294009CCDE900B400F0DBF803B000F068
:1006900003B800200146F9E730BCBDE8C08F2DE962
:1006A000F04D81EA030404F0004B21F000451446AC
:1006B0004FF0000A23F0004150EA050220D054EA2E
:1006C00001021DD0C5F30A570246C5F31303C1F357
:1006D0001300C1F30A5640F4801543F48013A7EBCE
:1006E0000608101BD64608F2FD3873EB050002D34E
:1006F00008F1010801E092185B41B8F1000F03DA3C
:1007000000200146BDE8F08D00204FF48011064620
:1007100084460EE0171B73EB050705D3121B63EB32
:10072000050306434CEA010C49084FEA30009218D1
:100730005B4150EA0107EDD152EA030012D082EA90
:10074000040083EA0501084305D0101BAB4106D223
:100750000122002306E000224FF0004302E06FF088
:10076000010253101AEB06004CEB085110EB0A0083
:1007700041EB0B01BDE8F04D00F054B8C1F30A5253
:10078000C1F3130140F2FF3341F480119A4202DABF
:1007900000200146704740F233439A42A2F23342AE
:1007A00002DC5242FFF747BEFFF736BE30B5041EEB
:1007B00071F1000404DB4FF00044404264EB01019E
:1007C000141E73F1000405DB1C464FF00043524237
:1007D00063EB0403994208BF904230BD064C074DBD
:1007E00006E0E06840F0010394E807009847103401
:1007F000AC42F6D3FFF7CEFCAC830008CC830008F4
:10080000202A06DBCB17203A41FA02F043EAE073D4
:1008100006E041FA02F3D040C2F1200291400843C1
:100820001946704710B5141E73F1000408DA401C15
:1008300041F1000192185B411A4301D120F00100FF
:1008400010BD2DE9F04D92469B4611B1B1FA81F2EF
:1008500002E0B0FA80F220329046FFF7DDFD044658
:100860000F4640EA0A0041EA0B0153465A46084344
:1008700013D0114653EA010019D0C8F14002504686
:10088000FFF7D9FD05460E46504659464246FFF74A
:10089000C3FD084305D0012004E020463946BDE8E9
:1008A000F08D0020054346EAE0762C4337430A9852
:1008B0006305E40AA0EB08000022FD0A44EA47545D
:1008C0000A3002D500200146E9E701051019694107
:1008D000DDE9084500196941BDE8F04DA2E770B5B2
:1008E0008C1810F8015B15F0070301D110F8013BDB
:1008F0002A1106D110F8012B03E010F8016B01F862
:10090000016B5B1EF9D12B0705D40023521E0DD4B9
:1009100001F8013BFAE710F8013BCB1A921C03E007
:1009200013F8015B01F8015B521EF9D5A142D8D33F
:10093000002070BD10B507F04AFC002010BD70B556
:100940000546AC6A606D00F0500098BB606D40F4E5
:10095000007060652068006800F00800A8B1206899
:1009600003F088FB10B32068C06800F40050E8B9B9
:10097000606D20F480706065606D00F48050A8B9EF
:10098000606D40F00100606510E02068C06800F014
:10099000020058B9606D20F480706065606D00F4ED
:1009A000805018B9606D40F001006065204600F08D
:1009B000E0FC0CE0FFE7606D00F0100018B120468D
:1009C00000F0D9FC03E0E06C416B2846884770BD1D
:1009D00070B50546AC6A606D40F040006065A06D82
:1009E00040F00400A065204600F0C5FC70BD70B565
:1009F0000446A56A284600F0BDFC70BD70B50446EB
:100A0000206803F023FB0646206803F024FB98B31C
:100A100096BB2068806800F00D0001280AD120688C
:100A200081681A4A1140891C816000BF0320216837
:100A3000086009E0606D40F010006065A06D40F056
:100A40000100A065012070BD01F030F9054614E0F9
:100A500001F02CF9401B02280FD92068806800F0B3
:100A6000010050B1606D40F010006065A06D40F075
:100A70000100A0650120E6E705E02068806800F03D
:100A800001000028E4D10020DDE70000C0FFFF7F67
:100A900038B5044600200090206803F0DCFA0028F6
:100AA0004FD1206880682849084048B1606D40F007
:100AB00010006065A06D40F00100A065012038BD08
:100AC000206803F0ADFA00BF2048806800F0E070B5
:100AD00000F4000080B11E4800681E49B0FBF1F030
:100AE000401C00EB40008000009002E00098401E97
:100AF000009000980028F9D101F0D8F805461AE0D6
:100B0000206803F0A8FA10B9206803F089FA01F010
:100B1000CDF8401B02280ED92068006800F00100C3
:100B200048B9606D40F010006065A06D40F00100B4
:100B3000A0650120C3E72068006800F001000028DC
:100B4000DED00020BBE700003F000080000304501F
:100B5000C8000020400D030003490978012901D194
:100B60008907486370470000700000201FB50F2000
:100B70000B214FF480620C4BCDE90032CDE902101D
:100B800000230A4A0AA10C4806F0EAFE0446012C9A
:100B900003D0094806F054FF0446012C02D107A0F7
:100BA00006F0B4FC1FBD0000880A0020D10B00082D
:100BB0004272696768740000880E002042524947FB
:100BC000485420496E6974206661696C2E0D0A00D4
:100BD0000AE000F015F80548017805A006F096FC3B
:100BE0004FF47A7006F0D8FEF3E700004C000020C6
:100BF000427269676874203D2025642E0D0A00004A
:100C0000002000EE100A0C48008880B200EE100AA6
:100C1000F8EE400ADFED091A80EEA11ADFED080AAE
:100C2000DFED071A41EEC10AFCEEE00A10EE900A71
:100C30000449087070470000B600002000F07F45AE
:100C40000000C8424C00002000BFFEE730B502465D
:100C50000B46FF200021002400BF13E0555C6840D4
:100C600000240BE000F0800525B1312585EA400520
:100C7000E8B201E04506280E651CECB2082CF1DB59
:100C80004D1CE9B29942E9DB30BD000010B506F019
:100C900021FC034800F0AAFD06F02AFC10BD00006C
:100CA000D026002010B506F015FC034800F09EFD8C
:100CB00006F01EFC10BD00008826002010B5074875
:100CC00002F0A9FC064948689621FFF758FB044842
:100CD00096224168014802F0BDFF10BD04260020A5
:100CE0002000002030B590F8444004F01C05012499
:100CF000AC40056C6C60046863608468102C04D19F
:100D00000468A2600468E16003E00468A16004680C
:100D1000E26030BD7047000000210E4A1160411EA4
:100D20000C4A083211600B492439096841F001016D
:100D3000084A243A116000BF06490A68411E8A42E7
:100D4000FAD304492439096821F00101014A243AFF
:100D5000116070472414004017E00C49C8688047B0
:100D60000A48007850B909484088B0F5FA6F05DBA9
:100D700006490869804700200449488003494869BA
:100D8000804741F2883006F007FEE6E78400002045
:100D900010B5002220214FF0904000F081FF10BDDF
:100DA00072B600BFFEE7000010B50021034802F054
:100DB00071FB0421014802F06DFB10BD9C24002052
:100DC0000448007828B10020024908704FF08041A3
:100DD000486370477000002005480078012805D05E
:100DE0000120034908706420010748637047000030
:100DF00070000020F8B504460D460020009000BFAA
:100E000094F85000012801D10220F8BD012084F897
:100E1000500000BF2046FFF7F1FD06468EBB606D17
:100E200020F4885040F002006065206881681B4A09
:100E3000114005F0804242F000421143816000BF42
:100E400013E00098401C00900098B0F5912F0CD34F
:100E5000606D20F0020040F01000606500BF0020CF
:100E600084F8500000BF0120CFE720688168C90FD7
:100E70000029E6D1606D20F0020040F001006065BD
:100E800004E0FFE7606D40F01000606500BF0020E7
:100E900084F8500000BF3046B7E70000C0FFFF3FB6
:100EA0002DE9F84F05460C464FF0000A002000904F
:100EB000FE49E068884200D000E000BF00BF95F81E
:100EC0005000012802D1022000F050BA012085F81C
:100ED000500000BF286803F0C8F8002872D160688D
:100EE00005281AD86068022806D0032807D00428ED
:100EF00008D005280DD108E00C2060600CE012201D
:100F0000606009E01820606006E04FF48070606067
:100F100002E00620606000BF00BF2968D4E900201D
:100F200001F1300CC0F3012B0CEB8B03D3F800C0A4
:100F300000F01F0E4FF01F0B0BFA0EFB2CEA0B0CF0
:100F400000F01F0BC2F3846E0EFA0BFE4CEA0E0C7F
:100F5000C3F800C000BF286803F087F881462868FE
:100F600003F06FF88046B9F1000F2AD1B8F1000FF5
:100F7000FBD1A2682168286803F08EF860692968AF
:100F8000C968C1F3C101490000FA01F720690428CA
:100F900019D028682268216900F1600C0CEB8103EC
:100FA000D3F800C0DFF808B30CEA0B0C02F0F84BE2
:100FB0004BF0004B4BEA070B4CEA0B0CC3F800C09C
:100FC00000BFA8E0B8E10021286803F031F8C0F3C1
:100FD000120030B90021286803F02AF8C0F38460B9
:100FE00007E00021286803F023F890FAA0F0B0FA97
:100FF00080F02168C1F3120119B92168C1F384613D
:1010000004E0216891FAA1F1B1FA81F1884204D19A
:1010100000221146286803F059F80121286803F0DE
:1010200007F8C0F3120030B90121286803F000F876
:10103000C0F3846007E00121286802F0F9FF90FA0C
:10104000A0F0B0FA80F02168C1F3120119B921684B
:10105000C1F3846104E0216891FAA1F1B1FA81F150
:10106000884204D100220121286803F02FF80221D0
:10107000286802F0DDFFC0F3120030B902212868B1
:1010800002F0D6FFC0F3846007E00221286802F076
:10109000CFFF90FAA0F0B0FA80F02168C1F31201FE
:1010A00019B92168C1F3846104E0216891FAA1F1C2
:1010B000B1FA81F1884204D100220221286803F0AC
:1010C00005F80321286802F0B3FFC0F3120030B91D
:1010D0000321286802F0ACFFC0F3846007E003211D
:1010E000286802F0A5FF90FAA0F0B0FA80F021681D
:1010F000C1F3120119B92168C1F3846104E02168C8
:1011000091FAA1F1B1FA81F1884204D100220321C0
:10111000286802F0DBFF286802F09DFF002870D1EC
:101120002868E2682168D0F8B0C0C1F312032CEA45
:10113000030C02F0180B5F4B23FA0BF30B404CEA45
:10114000030CC0F8B0C000BF5849E068884258D1CD
:101150002368C3F312031BB92368C3F3846304E059
:10116000236893FAA3F3B3FA83F35B1C03F01F0322
:10117000092B3ED82368C3F312031BB92368C3F3BA
:10118000846304E0236893FAA3F3B3FA83F35B1C4C
:1011900003F01F034FF0010C0CFA03FC2368C3F3A8
:1011A00012031BB92368C3F3846304E0236893FA32
:1011B000A3F3B3FA83F35B1C03F01F034CEA836CC5
:1011C0002368C3F312031BB92368C3F3846304E0E9
:1011D000236893FAA3F3B3FA83F35B1C03F01F03B2
:1011E00003EB43034FF0000B4BEA03534CEA0303BA
:1011F0003FE02368C3F3120323B92368C3F3846376
:1012000005E03BE0236893FAA3F3B3FA83F35B1C96
:1012100003F01F034FF0010C0CFA03FC2368C3F327
:1012200012031BB92368C3F3846304E0236893FAB1
:10123000A3F3B3FA83F35B1C03F01F034CEA836C44
:101240002368C3F312031BB92368C3F3846304E068
:10125000236893FAA3F3B3FA83F35B1C03F01F0331
:101260000A3B03EB43034FF0007B4BEA03534CEA8A
:1012700003031946A268286802F00EFF0E49206891
:10128000084078B300BF0D48806800F0E07600BFEA
:101290000B49206888422DD106F4000050BB094953
:1012A000286888424ED146F400010DE000007F40DE
:1012B00000F0FF03FFFF0700000008800003045058
:1012C000000052C700000450224802F0F9FE2248F4
:1012D00000682249B0FBF1F0401C00EB40008000A8
:1012E000009003E016E00098401E0090009800284F
:1012F000F9D127E01A49206888420CD106F08070A5
:1013000048B91849286888421CD146F080711148B4
:1013100002F0D6FE16E014492068884212D106F485
:10132000800078B90F49286888420BD146F48001C3
:10133000084802F0C5FE05E0686D40F020006865D1
:101340004FF0010A00BF002085F8500000BF504652
:10135000BAE5000000030450C8000020400D03005F
:10136000000084CB000004500100008018BCBDE8E0
:10137000E08F7047704770472DE9F84304464FF0FF
:1013800000090020009014B90120BDE8F88320690D
:1013900020B12020005D012800D100BF606D30B970
:1013A000204600F0E9F80020A06584F8500020688D
:1013B0008168C1F3407131B120688168674A11408A
:1013C000816000BF00BF206802F04AFEB0B920680B
:1013D0008168634A114041F08051816000BF6148DB
:1013E00000686149B0FBF1F0401C4000009002E051
:1013F0000098401E009000980028F9D1206802F063
:101400002FFE48B9606D40F010006065A06D40F09F
:101410000100A0654FF00109206802F026FE064693
:10142000606D00F0100000287ED1002EFCD1606DB0
:1014300020F4807040F002006065206802F00BFE2E
:1014400068B94A4802F007FE48B9606848498968A7
:1014500021F47C110143464A916000BF00BF607EC9
:10146000616B41EA4030E1680843A16808432021EC
:10147000095D40EA01452020005D012803D1A08CD0
:10148000401E45EA4045A06A28B1208D00F47070E6
:10149000E16A084305432068C0683649084028438C
:1014A0002168C860206802F0E0FD8046206802F0F4
:1014B000C8FD0746B8F1000F2CD127BB207E0021C4
:1014C00041EA803194F8300041EA40052068C06864
:1014D00044F20201884328432168C86094F8380028
:1014E000012811D1E06B40F00101206C0843616CD0
:1014F0000843A16C08432168096940F2FC729143DA
:1015000008432168086105E02068006920F00100B7
:1015100021680861206901280BD12068006B20F048
:101520000F00E169491E00E010E0084321680863EC
:1015300005E02068006B20F00F0021680863606DF3
:1015400020F0020040F00100606505E0606D40F0B1
:10155000100060654FF00109484616E7C0FFFF5FC5
:10156000C0FFFF7FC8000020400D030000000450B2
:101570000003045007C0F0FF10B59EB004461421CC
:1015800019A8FEF7FCFE5C2102A8FEF7F8FE304920
:101590002068884259D14FF4804002908003169011
:1015A0000320039001210491082105910721069150
:1015B000022107910891C905099102A800F0C0FC19
:1015C00008B1FFF7EDFB00BF2248C06C40F40050AB
:1015D0002049C8640846C06C00F40050019000BF68
:1015E00000BF00BF0846C06C40F00400C864084655
:1015F000C06C00F00400019000BF00BF05201990EE
:101600000B201A9000201B9019A9134800F056FADD
:10161000124813490860002048600021104881608A
:10162000C1608021016149004161890081612021FF
:10163000C161C901016200F059F908B1FFF7B0FBBF
:1016400000BF0748E064846200BF1EB010BD000008
:10165000000004500010024000080048080002404A
:10166000542400202DE9F04104460E461746206818
:1016700002F0FBFC002852D100BF94F85000012872
:1016800002D10220BDE8F081012084F8500000BFA3
:101690002046FFF7FDF90546002D3BD1606D40F671
:1016A0000161884340F480706065606D00F4805093
:1016B00020B1A06D20F00600A06501E00020A0652B
:1016C0001848E16CC8621848E16C08631748E16C7F
:1016D00048631C202168086000BF002084F8500087
:1016E00000BF2068406840F0100021684860206812
:1016F000C06840F001002168C860226802F1400122
:101700003B463246E06C00F077F90546206802F06F
:10171000BBFC05E000BF002084F8500000E002257B
:101720002846AFE73F090008EF090008D109000883
:101730000146002291F82500022808D00420C86341
:1017400000BF002081F8240000BF01207047086816
:10175000006820F00E000B6818600868006820F030
:1017600001000B68186091F8440000F01C03012090
:1017700098400B6C5860012081F8250000BF0020C4
:1017800081F8240000BF1046E0E770B5044600254C
:1017900094F82500022803D00420E063012520E00E
:1017A0002068006820F00E0021680860206800684A
:1017B00020F001002168086094F8440000F01C014A
:1017C00001208840216C4860012084F8250000BF7A
:1017D000002084F8240000BFA06B10B12046A16B4C
:1017E0008847284670BD0146C86B704770B50446EF
:1017F000206C05682068066894F8440000F01C011D
:10180000042088402840E0B106F00400C8B12068F8
:10181000006800F0200028B92068006820F004006B
:101820002168086094F8440000F01C0104208840FE
:10183000216C4860206B002856D02046216B8847D9
:1018400052E094F8440000F01C0102208840284037
:1018500018B306F0020000B32068006800F0200012
:1018600040B92068006820F00A0021680860012063
:1018700084F8250094F8440000F01C010220884000
:10188000216C486000BF002084F8240000BFE06A9B
:1018900050B32046E16A884726E094F8440000F0FF
:1018A0001C01082088402840F0B106F00800D8B19B
:1018B0002068006820F00E002168086094F8440059
:1018C00000F01C0101208840216C48600120E06389
:1018D00084F8250000BF002084F8240000BF606B5E
:1018E00010B12046616B884770BD000010B50146FD
:1018F00009B9012010BD3E4B086898420BD23D4B00
:101900000868C01A1423B0FBF3F08000486439481B
:10191000083808640AE0364B0868C01A1423B0FB84
:10192000F3F080004864324808380864022081F8E7
:1019300025000868026847F6F0708243D1E9020387
:1019400018430B6918434B6918438B691843CB69DB
:1019500018430B6A18430243086802608868B0F5B0
:10196000804F3AD0234B083B086C98421BD1D0F8EB
:10197000A80091F8443003F01C040F23A3409843BF
:101980001C4BA033186091F8443003F01C034868E6
:101990009840184B083BD3F8A8301843154B083B28
:1019A000C3F8A80019E01248A030006891F844304C
:1019B00003F01C040F23A34098430D4BA033186081
:1019C00091F8443003F01C0348689840084BA0335A
:1019D0001B681843064BA03318600020C863012021
:1019E00081F82500002081F8240000BF82E7000074
:1019F00008040240080002402DE9F04104460D466B
:101A000016461F464FF0000800BF94F82400012836
:101A100002D10220BDE8F081012084F8240000BF3B
:101A200094F8250001282CD1022084F825000020FC
:101A3000E0632068006820F00100216808603B46F0
:101A4000324629462046FFF74DF9206B30B1206819
:101A5000006840F00E00216808600BE02068006814
:101A600020F00400216808602068006840F00A0047
:101A7000216808602068006840F001002168086063
:101A800006E000BF002084F8240000BF4FF00208E9
:101A90004046BFE770B5044600F008F90646254603
:101AA000681C10B104480078054400BF00F0FEF83F
:101AB000801BA842FAD370BDC400002078B503464D
:101AC0000A460021C5E001268E40156805EA060495
:101AD000002C73D0157905F00305012D04D015797C
:101AE00005F00305022D13D198684E000325B5407B
:101AF000A8434E00D568B540284398605868012532
:101B00008D40A8431579C5F300158D4028435860D2
:101B1000157905F00305032D09D0D8684E0003257B
:101B2000B540A8434E009568B5402843D860157964
:101B300005F00305022D13D1CE0803F1200555F859
:101B400026004D07EE0E0F25B540A8434E07F60EB2
:101B50001569B5402843CE0803F1200545F8260055
:101B600018684E000325B540A843157905F0030514
:101B70004E00B54028431860556805F44035002DE7
:101B800066D000BF364D2D6E45F00105344E3566EA
:101B900035462D6E05F00105009500BF00BF4FEAE8
:101BA000B6358E0855F826008D072E0F0F25B54047
:101BB000A843B3F1904F02D1002515E048E0294D2C
:101BC000AB4201D101250FE0274DAB4201D10225E7
:101BD0000AE0264DAB4201D1032505E0244DAB427E
:101BE00001D1042500E007258E07360FB5402843B4
:101BF000204D8E0845F826001F4D2868A0435568E3
:101C000005F4801505B120431B4D28602D1D286863
:101C1000A043556805F4001505B12043164D2D1D50
:101C20002860154D2D1F2868A043556805F4003520
:101C300005B12043104D2D1F28602D1F2868A0439B
:101C4000556805F4803505B120430B4D083D2860EB
:101C5000491C1568CD40002D7FF435AF78BD0000DC
:101C6000001002400004004800080048000C004832
:101C700000100048080001400804014002461369B2
:101C80000B400BB1012000E00020704710B5426905
:101C900021EA020302EA010443EA0443836110BD1E
:101CA0000AB1816100E0816270470000014800686C
:101CB00070470000BC000020034800680349097811
:101CC0000844014908607047BC000020C40000209F
:101CD00010B50024032000F0D1F8032000F008F82C
:101CE00008B1012401E000F051F8204610BD0000C9
:101CF000F0B587B00446002500BF1F48006E40F4D1
:101D000000301D4908660846006E00F4003000905F
:101D100000BF00BF01A902A800F0B0FB00F0E8FB83
:101D200007461648B7FBF0F0461E154815490860EF
:101D300040F2E7311348C1604660002101618160D3
:101D4000816101F067F8054695B90E4801F0E2F8A7
:101D500005466DB9192000F03BF8102C07D200227F
:101D60002146192000F048F80748046000E00125EA
:101D7000284607B0F0BD00000010024040420F00AE
:101D80000044014018270020C000002008B500BF13
:101D90000E48006E40F001000C4908660846006ECF
:101DA00000F00100009000BF00BF00BF0846806D3A
:101DB00040F0805088650846806D00F080500090AB
:101DC00000BF00BF052000F059F808BD0010024018
:101DD0000146084600280DDB00BF00BF00F01F03CE
:101DE00001229A4043099B0003F1E023C3F800213C
:101DF00000BF00BF00BF70472DE9F05F80460D4671
:101E00001646002704F060FB074639462A4633464B
:101E100001F00700C0F1070ABAF1040F02D94FF030
:101E2000040A01E0C0F1070AD14600F1040ABAF140
:101E3000070F02D24FF0000A01E0A0F1030AD446D6
:101E40004FF0010A0AFA09FAAAF1010A0AEA020A9B
:101E50000AFA0CFA4FF0010B0BFA0CFBABF1010B79
:101E60000BEA030B4AEA0B042146404604F034FB1C
:101E700000F000B830BCBDE8C09F000000BF00F01B
:101E80000702064B19684FF6FF031940044B0B433A
:101E900043EA0221014B196000BF70470CED00E0DE
:101EA0000000FA050246B2F5007F2AD11D480068FD
:101EB00000F4C060B0F5007F32D01A48006820F40A
:101EC000C06040F40070174B186017480068322358
:101ED0005843164BB0FBF3F0411C00E0491E11487B
:101EE000406900F48060B0F5806F01D10029F5D120
:101EF0000C48406900F48060B0F5806F10D1032079
:101F000070470848006800F4C060B0F5806F07D0E3
:101F10000448006820F4C06040F48060014B186001
:101F20000020EDE700700040C800002040420F0094
:101F30000248006800F4C060704700000070004074
:101F40002DE9F84304460025A846208800F40060E7
:101F5000B0F5006F26D1606C68B1B0F5000F03D00A
:101F6000B0F5400F0ED10CE0D548C06840F4803089
:101F7000D349C86008E00021201D02F0FFFB0546A0
:101F800002E001E0012500BF00BF55B9CC48883010
:101F9000006820F44000616C0843C949C1F888001A
:101FA00000E0A846206800F40030B0F5003F75D18D
:101FB0004FF00009C248806D012121EA107078B10C
:101FC00000BFBF48806D40F08050BD49886508461D
:101FD000806D00F08050009000BF00BF4FF00109FD
:101FE000B848006840F48070B6490860FFF75EFEAC
:101FF000074606E0FFF75AFEC01B022801D9032559
:1020000005E0B048006800F480700028F2D000BFFE
:102010007DBBAB489030006800F44076CEB1A06D37
:10202000B04216D0A6489030006820F44076A4480C
:10203000D0F8900040F48030A149C1F890000846E3
:10204000D0F8900020F48030C1F890000846C0F825
:10205000906006F00100A8B1FFF728FE074609E0EE
:10206000FFF724FEC01B41F28831884202D90325C4
:1020700007E016E092489030006800F00200002867
:10208000EED000BF5DB98E489030006820F44070FB
:10209000A16D08438A49C1F8900003E00CE0A8460E
:1020A00000E0A846B9F1010F05D18548806D20F008
:1020B00080508349886500BF207800F0010048B156
:1020C0007F488830006820F00300216A08437C497B
:1020D000C1F88800207800F00200022809D1784871
:1020E0008830006820F00C00616A08437449C1F828
:1020F0008800207800F00400042809D17048883056
:10210000006820F03000A16A08436D49C1F88800DA
:10211000207800F02000202809D169488830006824
:1021200020F44060E16A08436549C1F888002088CE
:1021300000F40070B0F5007F09D161488830006874
:1021400020F44020E16B08435D49C1F888002088F5
:1021500000F48060B0F5806F09D15948883000687C
:1021600020F44010216C08435549C1F888002078BC
:1021700000F04000402809D151488830006820F420
:102180004050216B08434E49C1F88800207800F088
:102190008000802809D14A488830006820F44040F7
:1021A000616B08434649C1F88800208800F48070BC
:1021B000B0F5807F09D142488830006820F4403073
:1021C000A16B08433E49C1F88800206800F4002054
:1021D000B0F5002F1FD13A488830006820F04060E9
:1021E000A16C0843364988310860A06CB0F1006FDB
:1021F00006D13348C06840F480103149C8600AE015
:10220000A06CB0F1806F06D10121201D02F0B6FA5A
:10221000054605B1A846206800F48020B0F5802F5F
:102220001FD127488830006820F04060E16C0843E7
:10223000234988310860E06CB0F1006F06D1204876
:10224000C06840F480101E49C8600AE0E06CB0F13C
:10225000806F06D10121201D02F090FA054605B1DC
:10226000A846208800F48040B0F5804F14D114486F
:102270008830006820F04050216D084310498831B3
:102280000860206DB0F1805F06D10221201D02F0B0
:1022900075FA054605B1A846208800F40040B0F55F
:1022A000004F09D106488830006820F08040616DF9
:1022B00008430349C1F888004046BDE8F8830000A0
:1022C00000100240007000402DE9F04104460D4628
:1022D00014B90120BDE8F0816348006800F00700F0
:1022E000A8420ED26048006820F0070028435E49EB
:1022F00008600846006800F00700A84201D00120ED
:10230000E8E7207800F0020002280ED15749A068C3
:10231000896801F0F001884207D95448806820F0AC
:10232000F000A168084351498860207800F001005E
:1023300078B36068032806D14C48006800F000704C
:10234000D8B90120C6E76068022806D1474800686E
:1023500000F4003088B90120BCE7606830B9434818
:10236000006800F0020040B90120B3E73F48006870
:1023700000F4806008B90120ACE73C48806820F098
:1023800003006168084339498860FFF78FFC0646FF
:1023900009E010E0FFF78AFC801B41F28831884297
:1023A00001D9032096E73148806800F00C0061688D
:1023B000B0EB810FEED1207800F0020002280ED1A0
:1023C0002A49A068896801F0F001884207D22748AD
:1023D000806820F0F000A168084324498860224802
:1023E000006800F00700A8420ED91F48006820F0DE
:1023F000070028431C4908600846006800F00700F1
:10240000A84201D0012065E7207800F004000428EC
:1024100007D11648806820F4E060E168084313495A
:102420008860207800F00800082808D10F488068EC
:1024300020F46050216940EAC1000C49886000F036
:1024400069F80A498968C1F30311094A515C01F02E
:102450001F01C8400749086007480068FFF748FCAB
:102460000746384636E700000020024000100240D0
:102470002C820008C8000020C00000200F2202604B
:102480000D4A926802F0030242600B4A926802F021
:10249000F0028260084A926802F4E062C260064A72
:1024A000926802F46052D2080261044A126802F093
:1024B00007020A607047000000100240002002403E
:1024C0000148006870470000C800002000B5FFF711
:1024D000F7FF05498968C1F30221044A515C01F004
:1024E0001F01C84000BD0000001002403C820008EF
:1024F00000B5FFF7E5FF05498968C1F3C221044A29
:10250000515C01F01F01C84000BD000000100240F6
:102510003C820008F0B500230020DFF8D4C0DCF8CE
:1025200008C00CF00C01DFF8C8C0DCF80CC00CF0DF
:10253000030719B10C291ED1012F1CD1DFF8B0C03F
:10254000DCF800C00CF0080CBCF1000F06D1DFF87D
:10255000A0C0DCF894C0CCF3032305E0DFF890C002
:10256000DCF800C0CCF30313DFF888C05CF823303C
:1025700041B9184606E0042901D11F4802E00829A4
:1025800000D11E480C2932D1DFF864C0DCF80CC041
:102590000CF00304012C09D0022C02D0032C04D12E
:1025A00001E0154A04E0154A02E000BF1A4600BFE8
:1025B00000BFDFF83CC0DCF80CC0CCF3021C0CF10F
:1025C0000106DFF82CC0DCF80CC0CCF3062C0CFBA9
:1025D00002FCBCFBF6F2DFF818C0DCF80CC0CCF350
:1025E000416C0CF1010C4FEA4C05B2FBF5F0F0BD6B
:1025F00000100240448200080024F40000127A0017
:102600002DE9F843044614B90120BDE8F883F948E0
:10261000806800F00C06F748C06800F003072078D7
:1026200000F01000102877D11EB10C2E76D1012FAA
:1026300074D1F048006800F0020018B1A06908B930
:102640000120E2E7EB48216A006800F0080020B1B1
:10265000E848006800F0F00005E0E64894300068C3
:1026600000F47060000981421FD9206A02F04AF923
:1026700008B10120C9E700BFDE48006840F008004B
:10268000DC4908600846006820F0F000216A084331
:10269000D849086000BF0846406820F47F40E169DF
:1026A00040EA0120D34948601FE000BFD1480068DC
:1026B00040F00800CF4908600846006820F0F000AC
:1026C000216A0843CB49086000BF0846406820F4EF
:1026D0007F40E16940EA0120C64948602EB9206A7E
:1026E00002F010F908B101208FE7FFF713FFC1498D
:1026F0008968C1F30311C04A515C01F01F01C84051
:10270000BE490860BE480068FFF7F2FA8046B8F19B
:10271000000F4ED0404678E74BE0FFE7A06980B35A
:10272000B448006840F00100B2490860FFF7BEFA03
:10273000054606E0FFF7BAFA401B022801D903203C
:1027400063E7AC48006800F002000028F2D000BF48
:10275000A848006840F00800A649086008460068DC
:1027600020F0F000216A0843A249086000BF084633
:10277000406820F47F40E16940EA01209D494860BB
:1027800017E0FFE79B48006820F0010099490860C6
:10279000FFF78CFA054606E0FFF788FA401B02288F
:1027A00001D9032031E79348006800F002000028B7
:1027B000F2D1207800F0010000285CD0082E03D070
:1027C0000C2E0AD1032F08D18A48006800F400308B
:1027D00088B3606878BB012017E700BF6068B0F578
:1027E000803F06D18348006840F48030814908600A
:1027F0001AE06068B0F5A02F0BD17E48006840F465
:1028000080207C4908600846006840F480300860F9
:102810000AE07848006820F480307649086008466D
:10282000006820F48020086000BF606890B1FFF766
:102830003DFA054607E01EE0FFF738FA401B642822
:1028400001D90320E1E66B48006800F4003000285D
:10285000F2D010E0FFF72AFA054606E0FFF726FA65
:10286000401B642801D90320CFE66248006800F4C9
:1028700000300028F2D1207800F00200022852D166
:10288000042E03D00C2E14D1022F12D15948006807
:1028900000F4806018B1E06808B90120B5E6554839
:1028A000406820F0F850217C40EA016051494860BE
:1028B00039E0E06800B34F48006840F480704D494B
:1028C0000860FFF7F3F9054606E0FFF7EFF9401B54
:1028D000022801D9032098E64648006800F4806089
:1028E0000028F2D04348406820F0F850217C40EAAC
:1028F00001604049486016E03E48006820F480705E
:102900003C490860FFF7D2F9054606E0FFF7CEF92B
:10291000401B022801D9032077E63648006800F4FE
:1029200080600028F2D1207800F00800082836D115
:102930006069D0B12F489430006840F001002D4903
:10294000C1F89400FFF7B2F9054606E0FFF7AEF9CB
:10295000401B022801D9032057E62648943000681E
:1029600000F002000028F1D019E0224894300068FD
:1029700020F001001F49C1F89400FFF797F90546C0
:1029800006E0FFF793F9401B022801D903203CE63B
:1029900018489430006800F002000028F1D1207837
:1029A00000F00400042872D14FF000091148806D36
:1029B00000F0805078B900BF0E48806D40F0805024
:1029C0000C4988650846806D00F08050009000BF7B
:1029D00000BF4FF001090B48006800F4807000BB95
:1029E0000848006840F4807006490860FFF75EF907
:1029F000054610E0001002402C820008C8000020AC
:102A0000C000002000700040FFF750F9401B022872
:102A100001D90320F9E5CA48006800F48070002855
:102A2000F2D000BFA068012808D1C648006840F075
:102A30000100C4499039C1F8900021E0A068052840
:102A40000FD1C048006840F00400BE499039C1F879
:102A500090000846D0F8900040F00100C1F89000C6
:102A60000EE0B848006820F00100B6499039C1F87E
:102A700090000846D0F8900020F00400C1F89000C3
:102A800000BFA068A0B1FFF711F9054609E02EE0EC
:102A9000FFF70CF9401B41F28831884201D903202D
:102AA000B3E5A848006800F002000028F0D012E06A
:102AB000FFF7FCF8054608E0FFF7F8F8401B41F285
:102AC0008831884201D903209FE59E48006800F0C4
:102AD00002000028F0D1B9F1010F07D199489038D0
:102AE000806D20F0805097499039886500BF20782C
:102AF00000F02000202838D1606AD8B19148083011
:102B0000006840F001008F499039C1F89800FFF744
:102B1000CDF8054606E0FFF7C9F8401B022801D9A9
:102B2000032072E587480830006800F002000028A2
:102B3000F1D01AE083480830006820F00100814994
:102B40009039C1F89800FFF7B1F8054606E0FFF7A5
:102B5000ADF8401B022801D9032056E5794808301A
:102B6000006800F002000028F1D1A06A00287DD0A2
:102B7000A06A02287BD173489038C76807F0030128
:102B8000E06A814225D107F07001206B401EB1EB55
:102B9000001F1ED107F4FE41606BB1EB002F18D16E
:102BA00007F078413820005DB1EBC06F11D107F418
:102BB000C001A08F0122C2EB5000B1EB405F08D1F1
:102BC00007F0C0614020005DC2EB5000B1EB406FE8
:102BD00066D00C2E62D05B489038006800F08060B0
:102BE00008B1012011E557489038006820F0807046
:102BF000544990390860FFF759F8054606E0FFF799
:102C000055F8401B022801D90320FEE44D489038B6
:102C1000006800F000700028F1D1D4E90B10401ECC
:102C200041EA0011606B41EA0021A08F0122C2EB52
:102C3000500041EA40514020005DC2EB500041EAA3
:102C400040613820005D41EAC0603E499039C96862
:102C50003D4A114008433B499039C8600846006826
:102C600040F0807008600846C06801E053E03DE035
:102C700040F08070C860FFF719F8054606E0FFF7DE
:102C800015F8401B022801D90320BEE42D489038D6
:102C9000006800F000700028F1D04FE00120B4E49B
:102CA00028489038006800F00070A0BB2548903894
:102CB000006840F080702349903908600846C06879
:102CC00040F08070C860FEF7F1FF054606E0FEF7B1
:102CD000EDFF401B022801D9032096E419489038E3
:102CE000006800F000700028F1D027E00C2E23D0FF
:102CF00014489038006820F08070124990390860BC
:102D0000FEF7D4FF054607E0FEF7D0FF401B022880
:102D100002D9032079E411E00A489038006800F0F5
:102D200000700028F0D107489038C0680749084073
:102D300004499039C86001E0012066E4002064E4A1
:102D400000700040901002408C809D01FCFFEEFE60
:102D500070B504462546681EB0F1807F01D301207E
:102D60000FE0681E4FF0E02148610F214FF0FF3067
:102D700003F0B2FB00204FF0E021886107200861DA
:102D8000002070BD704770477047000030B50246A4
:102D90000B4600BF92F83C00012801D1022030BD53
:102DA000012082F83C0000BF022082F83D0010683C
:102DB000416810688468154D1068A84203D121F459
:102DC00070015868014321F07001186801431068D0
:102DD00041600E4D1068A84207D01068B0F1804FD6
:102DE00003D00B4D1068A84205D124F080049868E8
:102DF000044310688460012082F83D0000BF002079
:102E000082F83C0000BF00BFC9E70000002C014071
:102E10000040014010B504460CB9012010BD94F8E3
:102E20003D0028B9002084F83C00204600F02AF834
:102E3000022084F83D00211D206802F0CDFA012017
:102E400084F8480000BF84F83E0001213F2001556E
:102E50004020015541200155422001554320015594
:102E600000BF00BF012084F84400452001554620E2
:102E700001554720015500BF012084F83D00002086
:102E8000CCE7000038B504462068B0F1804F0DD182
:102E900000BF1D48806D40F001001B498865084651
:102EA000806D00F00100009000BF2CE01749206801
:102EB000884216D100BF1448806D40F010001249BE
:102EC00088650846806D00F01000009000BF00BFCC
:102ED000022211463620FEF78FFF3620FEF778FFDC
:102EE00011E00B49206888420DD100BF0648806D73
:102EF00040F02000044988650846806D00F02000FD
:102F0000009000BF00BF38BD00100240001000401C
:102F100000140040014691F83D00012801D0012035
:102F20007047022081F83D000868C06840F0010049
:102F30000B68D860124B0868984207D00868B0F157
:102F4000804F03D00F4B0868984210D10868806802
:102F50000D4B00EA0302062A0FD0B2F5803F0CD0D9
:102F60000868006840F001000B68186005E0086818
:102F7000006840F001000B6818600020D0E70000F6
:102F8000002C014000400140070001002DE9F04104
:102F900004460D46002700BF94F83C00012802D1EA
:102FA0000220BDE8F081012084F83C0000BF02202F
:102FB00084F83D00206886683748064026F47F463E
:102FC000206886602868502833D00CDC202850D038
:102FD00004DC00284BD0102851D149E0302849D0DA
:102FE00040284CD139E060282DD0702807D0B0F5AA
:102FF000805F03D0B0F5005F41D10DE041E0D5E93D
:1030000002136A68206802F032FA2068866846F087
:1030100077062068866034E0D5E902136A68206884
:1030200002F025FA2068806840F4804021688860BA
:1030300027E0EA686968206802F08EFB502120686A
:1030400002F020FA1DE0EA686968206802F097FB48
:103050006021206802F016FA13E0EA6869682068C7
:1030600002F07AFB4021206802F00CFA09E000BF70
:1030700000BF00BF2968206802F004FA01E00127C0
:1030800000BF00BF012084F83D0000BF002084F88D
:103090003C0000BF384684E788FFFEFF704710B54C
:1030A000044620680069C0F34000D8B12068C068B9
:1030B000C0F34000B0B16FF0020021680861012048
:1030C00020772068806900F0030018B12046FFF7E0
:1030D000E5FF05E0204600F0EBF8204600F0D9F9C6
:1030E0000020207720680069C0F38000D8B12068F4
:1030F000C068C0F38000B0B16FF0040021680861BF
:10310000022020772068806900F4407018B12046C2
:10311000FFF7C4FF05E0204600F0CAF8204600F0A3
:10312000B8F90020207720680069C0F3C000D8B14A
:103130002068C068C0F3C000B0B16FF0080021681B
:103140000861042020772068C06900F0030018B1EE
:103150002046FFF7A3FF05E0204600F0A9F820462F
:1031600000F097F90020207720680069C0F3001074
:10317000D8B12068C068C0F30010B0B16FF0100083
:1031800021680861082020772068C06900F4407039
:1031900018B12046FFF782FF05E0204600F088F8CE
:1031A000204600F076F9002020772068006900F0C2
:1031B000010058B12068C06800F0010030B16FF024
:1031C000010021680861204600F0EEF920680069DE
:1031D000C0F3C01058B12068C068C0F3C01030B14F
:1031E0006FF08000216808612046FFF7CCFD206861
:1031F0000069C0F3002058B12068C068C0F3C01057
:1032000030B16FF48070216808612046FFF7BAFD85
:1032100020680069C0F3801058B12068C068C0F30E
:10322000801030B16FF0400021680861204600F046
:10323000EFF920680069C0F3401058B12068C068F9
:10324000C0F3401030B16FF02000216808612046C3
:10325000FFF79AFD10BD000010B586B0044614219A
:1032600001A8FDF78CF82068B0F1804F1BD100BF9A
:103270000E48C06C40F001000C49C8640846C06CA0
:1032800000F00100009000BF00BF03200190022069
:1032900002900020039004900120059001A94FF0B6
:1032A0009040FEF70BFC06B010BD0000001002407D
:1032B00070472DE9F04104460D461646002700BF31
:1032C00094F83C00012802D10220BDE8F0810120E1
:1032D00084F83C0000BF0C2E51D005DC4EB1042E0A
:1032E0001ED0082E7AD133E0102E60D0142EF9D1E2
:1032F00075E02946206802F0CFF82068806940F028
:103300000800216888612068806920F00400216835
:10331000886120688069296908432168886178E0AC
:103320002946206802F0FCF82068806940F40060BB
:10333000216888612068806920F480602168886144
:1033400020688069296940EA01202168886160E07D
:103350002946206802F02CF92068C06940F0080076
:103360002168C8612068C06920F004002168C86134
:103370002068C069296908432168C86149E0294675
:10338000206802F05DF92068C06940F4006021689F
:10339000C8612068C06920F480602168C861206825
:1033A000C069296940EA01202168C86131E02946E5
:1033B000206802F075F92068406D40F0080021682F
:1033C00048652068406D20F0040021684865206849
:1033D000406D29690843216848651AE017E02946CD
:1033E000206802F08BF92068406D40F4006021688D
:1033F00048652068406D20F4806021684865206839
:10340000406D296940EA01202168486501E00127F3
:1034100000BF00BF00BF002084F83C0000BF38465A
:1034200053E710B504460CB9012010BD94F83D00D7
:1034300028B9002084F83C00204600F029F802203A
:1034400084F83D00211D206801F0C6FF012084F8AA
:10345000480000BF84F83E0001213F200155402074
:10346000015541200155422001554320015500BF1F
:1034700000BF012084F84400452001554620015535
:103480004720015500BF012084F83D000020CCE713
:103490007047704770B504460D4615B994F83E0064
:1034A00015E0042D02D13F20005D10E0082D02D16F
:1034B0004020005D0BE00C2D02D14120005D06E0B4
:1034C000102D02D14220005D01E04320005D012863
:1034D00001D0012070BD1DB9022084F83E001AE021
:1034E000042D03D102213F20015514E0082D03D102
:1034F0000221402001550EE00C2D03D10221412074
:10350000015508E0102D03D102214220015502E0AF
:1035100002214320015501222946206801F096FF2F
:103520001D492068884207D01C492068884203D082
:103530001B492068884201D1012000E0002028B109
:103540002068406C40F400402168486412492068BB
:10355000884207D02068B0F1804F03D00F4920681F
:10356000884210D1206880680E4900EA0106062EC4
:103570000FD0B6F5803F0CD02068006840F0010005
:103580002168086005E02068006840F001002168BB
:10359000086000209EE70000002C01400040014030
:1035A000004401400700010010B50446144920689A
:1035B000096888421CD113488088401C11498880C2
:1035C00008464088401C48800F484088401C0E49EF
:1035D00048800C480088401C80B20A490880C828EE
:1035E00006DB0020088040214FF09040FEF74EFBA4
:1035F00006492068884201D1FEF75EFB10BD00003D
:10360000E824002014000020840000200044014031
:1036100070477047704770B50446A56FE66F206825
:10362000806800F08000802823D1212D21D100BFA7
:1036300000BF2168083151E8001F21F08000216897
:10364000083141E80002002AF3D100BFE06E68B102
:10365000E06EFEF76DF848B1E06EFEF7C4F8202882
:1036600004D11020C4F88000032070BD204602F071
:10367000CCFA2068806800F04000402823D1222E38
:1036800021D100BF00BF2168083151E8001F21F09F
:1036900040002168083141E80002002AF3D100BF50
:1036A000206F68B1206FFEF743F848B1206FFEF736
:1036B0009AF8202804D11020C4F880000320D4E711
:1036C000204602F059FA0020CFE770472DE9F04775
:1036D00004462068C569206806682068876840F647
:1036E0000F0005EA0009B9F1000F0CD105F0200028
:1036F00048B106F0200030B1606E10B12046616E16
:103700008847BDE8F087B9F1000F7DD007F00100D0
:1037100018B9BE4830400028F7D005F0010058B174
:1037200006F4807040B1012021680862D4F880005E
:1037300040F00100C4F8800005F0020058B107F025
:10374000010040B1022021680862D4F8800040F0F6
:103750000400C4F8800005F0040058B107F001002F
:1037600040B1042021680862D4F8800040F00200D3
:10377000C4F8800005F0080070B106F0200010B910
:1037800007F0010040B1082021680862D4F88000E9
:1037900040F00800C4F8800005F4006060B106F055
:1037A000806048B14FF4006021680862D4F880005E
:1037B00040F02000C4F88000D4F8800000284BD0EE
:1037C00005F0200038B106F0200020B1606E10B185
:1037D0002046616E8847D4F880A02068806800F099
:1037E0004000402802D00AF0280070B3204602F0C2
:1037F000C3F92068806800F04000402821D100BF54
:1038000000BF2168083100E027E051E8001F21F0E7
:1038100040002168083141E80002002AF1D100BFD0
:10382000206F50B17A48216F8863206FFDF7ADFF9C
:1038300090B1206F816B88470EE02046FFF745FF6F
:103840000AE02046FFF741FF06E0FFE72046FFF7CA
:103850003CFF0020C4F8800053E7206E01286FD1A0
:1038600005F0100000286BD006F010000028FAD0F8
:103870001020216808622068806800F0400040281D
:103880005FD1206F006840681FFA80F8B8F1000F20
:1038900055D0B4F85800404551DDA4F85A80206F47
:1038A0000068006800F02000E8BB00BF00BF21688E
:1038B00051E8001F21F48070226842E800010029CD
:1038C000F5D100BF00BF00BF2168083151E8001FDB
:1038D00021F001002168083141E80002002AF3D1FB
:1038E00000BF00BF00BF2168083151E8001F21F070
:1038F00040002168083141E80002002AF3D100BFEE
:103900002020E0670020206600BF00BF216851E84A
:10391000001F21F01000226842E800010029F5D1C3
:1039200000BF206F00E001E0FDF702FFB4F858008F
:10393000B4F85A20801A81B22046FFF76AFEE0E60A
:103940003EE034F8580F6188401A1FFA80F860880A
:10395000583CA0B3B8F1000F31D000BF00BF2168C0
:1039600051E8001F21F49070226842E8000100290C
:10397000F5D100BF00BF00BF2168083151E8001F2A
:1039800021F001002168083141E80002002AF3D14A
:1039900000BF2020E06700202066606600BF00BFF7
:1039A000216851E8001F21F01000226842E8000160
:1039B0000029F5D100BF41462046FFF72AFEA0E6C8
:1039C00005F4801050B107F4800038B14FF4801036
:1039D000216808622046FFF71DFE92E605F0800090
:1039E00040B106F0800028B1A06E10B12046A16E53
:1039F000884786E605F0400030B106F0400018B177
:103A0000204602F0EBF87CE600BF7AE620010004D5
:103A1000D359000810B50446044920680968884253
:103A200002D103498869804710BD000004260020A8
:103A30008400002010B504460CB9012010BDA06917
:103A400000B100E000BFA06F28B9002084F8740026
:103A5000204600F029F82420A0672068006820F0A4
:103A6000010021680860204602F0AAF9012800D16F
:103A7000E4E7606A10B1204601F0F6FE2068406875
:103A800020F49040216848602068806820F02A0077
:103A9000216888602068006840F0010021680860A3
:103AA000204601F05DFFC9E710B59EB00446142121
:103AB00019A8FCF764FC5C2102A8FCF760FC5E49D5
:103AC000206888423DD10120029000200A9002A87F
:103AD000FEF736FA08B1FDF763F900BF5748006EEC
:103AE00040F48040554908660846006E00F4804066
:103AF000019000BF00BF00BF0846C06C40F001004D
:103B0000C8640846C06C00F00100019000BF00BF0F
:103B10004FF4C060199002201A9000201B900320DF
:103B20001C9007201D9019A94FF09040FDF7C6FF8B
:103B3000032202212520FEF75FF92520FEF748F930
:103B400078E03F492068884274D104200290002028
:103B50000C9002A8FEF7F4F908B1FDF721F900BFB7
:103B60003648806D40F48020344988650846806D71
:103B700000F48020019000BF00BF00BF0846C06C69
:103B800040F00400C8640846C06C00F004000190D6
:103B900000BF00BF3020199002201A9000201B9017
:103BA00003201C9007201D9019A92648FDF786FFC9
:103BB000254826490860022048600021234881608A
:103BC000C16080210161002141618161C1614FF4C7
:103BD00000510162FDF78AFE08B1FDF7E1F800BF70
:103BE0001A482067846200BF1748143818490860D3
:103BF000022048601021164881600021C1608021A8
:103C00000161002141618161C1614FF48051016214
:103C1000FDF76CFE08B1FDF7C3F800BF0C48E06685
:103C2000846200BF002202212720FEF7E5F827204A
:103C3000FEF7CEF81EB010BD003801400010024063
:103C4000004800400008004830000240882600205C
:103C5000D026002070B504460D461646E06F202899
:103C60002CD105B10EB9012070BD00BF94F87400CD
:103C7000012801D10220F7E7012084F8740000BF79
:103C8000002020660E492068884211D020684068D4
:103C900000F4000060B100BF00BF216851E8001FC0
:103CA00041F08060226842E800010029F5D100BFA0
:103CB00032462946204602F0FFF9D5E70220D3E735
:103CC0000080004070B504460D461646E06F20287F
:103CD0002CD105B10EB9012070BD00BF94F874005D
:103CE000012801D10220F7E7012084F8740000BF09
:103CF000002020660E492068884211D02068406864
:103D000000F4000060B100BF00BF216851E8001F4F
:103D100041F08060226842E800010029F5D100BF2F
:103D200032462946204602F031FAD5E70220D3E791
:103D300000800040064A01681268914206D1054998
:103D400009785A2902D10121034A117170470000F4
:103D500080250020B40000208400002070472DE959
:103D6000F84F04460E4617469946A06F20285DD1AD
:103D700006B117B9012000F05BB800BF94F87400D9
:103D8000012801D10220F6E7012084F8740000BF69
:103D90000020503420632120A062FDF787FF824677
:103DA00027806780503CA068B0F5805F04D120690F
:103DB00010B90025B04602E035464FF0000800BFBC
:103DC000002084F8740000BF1DE0534600228021CB
:103DD0002046CDF8009002F057FA08B10320CAE758
:103DE00045B9B8F80000C0F308002168088508F15B
:103DF000020803E02878216808856D1CB4F8520099
:103E0000401EA4F85200B4F852000028DDD15346F9
:103E1000002240212046CDF8009002F035FA08B18A
:103E20000320A8E72020A0670020A4E70220A2E743
:103E300018BCBDE8E08F000070B504460E4615467C
:103E4000A06F202853D106B10DB9012070BD00BF6D
:103E500094F87400012801D10220F7E7012084F8CA
:103E6000740000BF44F84C6FA580E58000206063BB
:103E70002120E062206A4C3C00B31E48E16EC8621B
:103E80001D48E16E08631D48E16E48630020E16E45
:103E90008863236803F128022B46E16CE06EFDF78E
:103EA000ABFD58B11020C4F8800000BF002084F89A
:103EB000740000BF2020A0670120C7E740202168D0
:103EC000086200BF002084F8740000BF00BF00BF7C
:103ED0002168083151E8001F41F080002168083155
:103EE00041E80002002AF3D100BF0020AEE7022023
:103EF000ACE70000155B00086B5B0008EB5900089D
:103F00007047704710B5012240210448FDF7C8FEF4
:103F1000012280210148FDF7C3FE10BD00040048C6
:103F20001FB500224FF400712A48FDF7B9FE0A20A0
:103F3000FDF7B0FD012251022648FDF7B1FE012236
:103F400011024FF09040FDF7ABFE4FF4FA70FDF711
:103F5000A1FD00202049488000BF2049C869804752
:103F60001F48C1681FA088476420FDF793FD1C48C7
:103F700041681EA002F084FA17484088B0F5FA6F35
:103F800003DB1649086A804706E01549486818A10E
:103F9000FCF700FA0028E0D000BF64200D214FF4A8
:103FA0008052144BCDE90032CDE902100023124AB1
:103FB00012A1154803F0D4FC0446012C03D012488A
:103FC00003F03EFD0446012C02D110A003F09EFA3E
:103FD0001FBD0000000800481400002084000020DD
:103FE0002000002041540D0A00000000257300004D
:103FF0004F4B0000000F0020590D0008574946495B
:104000005F54687265616400001F0020574946498B
:1040100020496E6974206661696C2E0D0A000000EB
:104020008168024A1140491C81607047C0FFFF7FD0
:10403000024602F1600000EB8103186800F0F840CE
:10404000704701468868C0F3C00070470146886821
:10405000C0F3400070470146886800F001007047D7
:1040600001468868C0F30070704701468868C0F355
:10407000800070470146C86800F4406008B901201C
:1040800070470020FCE700008168024A1140091DCA
:1040900081607047C0FFFF7F70B500F11404C1F369
:1040A000406504EB85031C68C1F304560725B54041
:1040B000AC43C1F3045502FA05F52C431C6070BDF6
:1040C000826822F0E0720A438260704710B500F106
:1040D000600404EB81031C6824F0004414431C605A
:1040E00010BD00000B48808880B200EE100AF8EE88
:1040F000400ADFED091A80EEA11ADFED080ADFEDB4
:10410000071A41EEC10AFCEEE00A10EE900A0449DB
:1041100008707047B600002000F07F450000C842DC
:10412000A80000201FB50F200C214FF480620C4B1B
:10413000CDE90032CDE9021000230A4A0AA10C4859
:1041400003F00EFC0446012C03D0094803F078FC70
:104150000446012C02D107A003F0D8F91FBD0000CE
:10416000781F0020894100084D515F320000000097
:10417000782300204D515F3220496E6974206661BA
:10418000696C2E0D0A0000000AE0FFF7ABFF05483E
:10419000017805A003F0BAF94FF47A7003F0FCFB44
:1041A000F3E70000A8000020415149203D2025648C
:1041B0002E0D0A0000B587B0182101A8FCF7DFF822
:1041C0002148224908600020486000211F48816082
:1041D000C1600121016104214161002101760121B9
:1041E00041760221C161002180F820108162C16204
:1041F000012180F830100021416380F83810FDF76C
:10420000BBF808B1FCF7CCFD1148019006200290E4
:10421000012003907F200490042005900020069048
:1042200001A90A48FCF73CFE08B1FCF7B9FD0948B2
:1042300001900C20029001A90448FCF731FE08B15E
:10424000FCF7AEFD07B000BD00000450F0230020D5
:10425000020030040800900C08B500BF0E48806CC6
:1042600040F001000C4988640846806C00F00100B1
:10427000009000BF00BF012211460C20FDF7BCFDDD
:104280000C20FDF7A5FD002201210D20FDF7B4FD56
:104290000D20FDF79DFD08BD0010024000B587B060
:1042A000142102A8FCF76BF800BF3E48C06C40F038
:1042B00080003C49C8640846C06C00F08000019052
:1042C00000BF00BF00BF0846C06C40F00400C864D7
:1042D0000846C06C00F00400019000BF00BF00BFA2
:1042E0000846C06C40F00100C8640846C06C00F08D
:1042F0000100019000BF00BF00BF0846C06C40F045
:104300000200C8640846C06C00F00200019000BFC3
:1043100000BF01224FF4F0714FF09040FDF7C0FC58
:10432000002203212048FDF7BBFC012251021F4857
:10433000FDF7B6FC0122C0211B48FDF7B1FC4FF48C
:10434000F07002900120039000200490059002A9D3
:104350004FF09040FDF7B2FB032002900120039044
:1043600000200490059002A90F48FDF7A7FB4FF429
:10437000007002900120039000200490059002A993
:104380000A48FDF79BFBC0200290112003900020FB
:1043900004900220059002A90348FDF78FFB07B0A7
:1043A00000BD000000100240000400480008004862
:1043B00000B58FB000200B900C900D900E900890DF
:1043C00009900A901C2101A8FBF7D9FF4FF080400B
:1043D0002B4908604F20486000212948816040F245
:1043E000E731C1600021016180218161FEF712FD8A
:1043F00008B1FCF7D5FC4FF480500B900BA9204876
:10440000FEF7C4FD08B1FCF7CBFC1D48FFF709F827
:1044100008B1FCF7C5FC002008900A9008A91848CC
:10442000FEF7B4FC08B1FCF7BBFC60200190002053
:10443000029003900590002201A91148FEF739FF70
:1044400008B1FCF7ADFC0E480068806920F0080058
:104450000B4909688861042201A90948FEF729FF70
:1044600008B1FCF79DFC06480068806920F40060F4
:104470000349096888610248FEF7EEFE0FB000BDEF
:104480009C2400200EB500200090019002900E4860
:104490000E4908604F20486000210C48816041F2BD
:1044A0008731C16080218161FEF7B4FC08B1FCF75F
:1044B00077FC00200090029069460448FEF766FCF5
:1044C00008B1FCF76DFC0EBD00100040E824002090
:1044D0000EB500200090019002900E480E49086031
:1044E0004F20486000210C4881604FF6FF71C16089
:1044F00000218161FEF78EFC08B1FCF751FC002021
:104500000090029069460448FEF740FC08B1FCF7B1
:1045100047FC0EBD001400403425002010B50D48A6
:104520000D4908604FF4E130486000210A4881607D
:10453000C16001610C21416100218161C1610162A1
:104540000020054948620846FFF774FA08B1FCF7F5
:1045500027FC10BD003801408025002010B50D4813
:104560000D4908604FF4E130486000210A4881603D
:10457000C16001610C21416100218161C161016261
:104580000020054948620846FFF754FA08B1FCF7D5
:1045900007FC10BD004800400426002000B52DEDAA
:1045A000028B83B000200190029008EE100A9FED6C
:1045B000570AF0EE408A5649486880475448C16817
:1045C000882088475248C168272088475048C168DA
:1045D0003720884700204F49888000BF4D48808899
:1045E000B0F5C87F00DB17E0494948688047484874
:1045F000C168882088474648C168E0208847444809
:10460000C168002088474249486880474048C168DF
:10461000892088470128E1D000BF3E488088B0F556
:10462000C87F6EDA3A480169002088478DF8040097
:1046300037480169002088478DF805003448016932
:10464000002088478DF8060031480169002088471E
:104650008DF807002E480169002088478DF8080072
:104660002B480169012088478DF80900284988688E
:104670008047022101A8FCF7E9FA9DF8061088425C
:1046800019D19DF805109DF8040001EB002080B2BF
:1046900008EE100AF8EE480A9FED1F1A9FED1F0A58
:1046A00010EE810AF0EE408A9FED1D0A28EE800A86
:1046B0001C4880ED010A02210DF10700FCF7C6FA43
:1046C0009DF8091088421CD19DF808109DF807003C
:1046D00001EB002080B208EE100AB8EE480ADFEDC8
:1046E000120A20EE200AF0EE408A9FED0D0A28EE15
:1046F000800AF0EE408ABCEEE80A10EE100A094982
:10470000087003B0BDEC028B00BD0000000000008B
:1047100000000020140000206BB8883E00A08C45EB
:104720000AD7233C3C0000208E401C3E00BFFEE721
:1047300000BFFEE710B50648007838B100200449F4
:104740000870002201210348FDF7AAFA10BD0000FD
:10475000580000200004004810B5064800780128E1
:1047600007D0012003490870012211460248FDF7D5
:1047700097FA10BD58000020000400482DE9F041D0
:1047800004460F4600255B48C06800F0030090B166
:104790005848C06800F003002168884209D12068A9
:1047A00038B15448C068C0F30210401C61688842A8
:1047B00033D0012531E02068012804D0022809D037
:1047C00003281AD10DE04B48006800F0020000B940
:1047D000012514E04748006800F4806000B9012515
:1047E0000DE04448006800F4003028B941480068F2
:1047F00000F4802000B9012501E0012500BF00BFC1
:104800005DB9D4E90010401E41EA00103949C96879
:1048100021F0730108433749C860002D67D135483E
:10482000006820F0806033490860FDF73FFA0646D3
:1048300006E0FDF73BFA801B022801D9032505E0BD
:104840002C48006800F000600028F2D100BFC5BB12
:1048500067B9A0680002217B40EAC1602549096967
:10486000254A114008432349086120E0012F0FD158
:10487000A0680002218A0122C2EB510140EA4150A6
:104880001C4909691D4A114008431A4908610EE094
:10489000A0680002217D0122C2EB510140EA416083
:1048A00014490969164A1140084312490861114820
:1048B000006840F080600F490860FDF7F7F9064690
:1048C00007E014E0FDF7F2F9801B022801D9032567
:1048D00005E00848006800F000600028F2D000BF42
:1048E0002DB904480069A1690843024908612846B6
:1048F000BDE8F08100100240FF80FF07FF809FFFAE
:10490000FF80FFF9F8B5044600262348806D00F0CB
:10491000805018B1FDF70CFB054616E000BF1E489D
:10492000806D40F080501C4988650846806D00F01D
:104930008050009000BF00BFFDF7FAFA0546164808
:10494000806D20F0805014498865B5F5007F07D14F
:10495000802C10D9A02C01D902260CE001260AE0F7
:10496000802C01D9032606E0802C01D1022602E02A
:10497000702C00D101260948006820F00700304360
:10498000064908600846006800F00700B04201D000
:104990000120F8BD0020FCE700100240002002408A
:1049A0007047704770B505460024002618E0600681
:1049B000040E002240212248FDF772F90A20FCF77C
:1049C000ABF9012240211E48FDF76AF90A20FCF7E5
:1049D000A3F980211A48FDF751F90443701CC6B2AF
:1049E000082EE4DB002240211548FDF759F901208B
:1049F000FCF792F92DB9002280211148FDF750F9FA
:104A000004E0012280210E48FDF74AF90120FCF75D
:104A100083F9012240210A48FDF742F90A20FCF7F8
:104A20007BF9002240210648FDF73AF90122802156
:104A30000348FDF735F90120FCF76EF9204670BDFB
:104A40000004004810B524480078012843D123A071
:104A500001F016FD2848416828A001F011FD28A0AA
:104A600001F00EFD2449486826A1FBF793FC10B124
:104A70002649886880472049486825A1FBF78AFCB9
:104A800010B12249C86880471B49486822A1FBF73A
:104A900081FC10B12249486880471749486821A124
:104AA000FBF778FC10B11E498868804712494868B6
:104AB0001EA1FBF76FFC10B11E49486880470E49E4
:104AC00048681DA1FBF766FC10B11A498868804749
:104AD0000149C869804710BD8400002052656320E9
:104AE000696E666F2066726F6D2054435020736547
:104AF000723A0D0A0000000020000020257300001B
:104B00000D0A000046414E5F310000007000002099
:104B100046414E5F3000000052454C41595F310024
:104B20006400002052454C41595F30004C45445FC1
:104B300031000000580000204C45445F3000000068
:104B400010B50648007838B10020044908700022EA
:104B500002210348FDF7A4F810BD00006400002006
:104B60000004004810B506480078012807D001204D
:104B700003490870012202210248FDF791F810BD97
:104B800064000020000400481FB519200E214FF4D6
:104B900000620B4BCDE90032CDE902100023094A37
:104BA00009A10B4802F0DCFE012C03D0084802F0FA
:104BB00047FF0446012C02D106A002F0A7FC1FBD4E
:104BC00010020020E94B0008534854333000000025
:104BD000100A0020534854333020696E69742066EF
:104BE00061696C2E0D0A00000AE0FFF7D7FC05484A
:104BF000017805A002F08AFC4FF47A7002F0CCFE36
:104C0000F3E700003C0000207368696475203D20D4
:104C10002564252552480D0A0D0A00002DE9F041B2
:104C200004460D4626462F461849C869804718484D
:104C3000C16830468847314616A001F021FC0020AB
:104C40001549488007E014484088142803DD0F49BF
:104C5000086A804706E00E49486810A1FBF79AFBF6
:104C60000028F0D000BF0A20FCF714FF084948686C
:104C70003946FBF78FFB10B90449086A804704489E
:104C8000416804A001F0FCFBBDE8F0818400002035
:104C90002000002025730000140000200D0A0000F1
:104CA00070B504460D462A4621460248FFF7C4F86F
:104CB00070BD00000426002070B504462046FBF7B6
:104CC0007BFB85B22A4621460148FFF7B5F870BD47
:104CD0000426002010B54248007901287ED12B20FF
:104CE0004049096808703F49096848703D490968AA
:104CF00088703C4908688A68032190474FF47A70AD
:104D0000FCF7C8FE38A139A0FFF788FF36A139A00B
:104D1000FFF784FF34A139A0FFF780FF32A13CA048
:104D2000FFF77CFF30A13FA0FFF778FF42A001F022
:104D3000A7FB00204649488029E02949C8698047E7
:104D40006420FCF7A7FE80214FF09040FCF79EFF07
:104D5000244841683FA001F093FB224841683DA0F0
:104D600001F08EFB1F4948683BA1FBF713FB18B10C
:104D700048F2D040364948801A4948683BA1FBF7C1
:104D800009FB20B118A13DA0FFF748FF05E030481E
:104D9000408848F6A0418842CFDB00BF2C484088BD
:104DA00048F6A04188420CDA39A001F069FB0020E6
:104DB0000B4908704FF4FA6048800020087107E042
:104DC0000CE03AA001F05CFB002005490870488027
:104DD000012280214FF09040FCF762FF10BD0000DF
:104DE00084000020200000204F4B000041540D0A99
:104DF00000000000415445300D0A000041542B438F
:104E0000574D4F44455F4355523D310D0A00000058
:104E100041542B43574155544F434F4E4E3D310D56
:104E20000A00000041542B43575354415254534DF0
:104E30004152543D320D0A00537461727420536D17
:104E4000617274436F6E6669673A0D0A0000000074
:104E50001400002025730000536D61727420676593
:104E600074207769666920696E666F00636F6E6E85
:104E700065637465642077696669000041542B435B
:104E80005753544F50534D4152540D0A00000000E7
:104E90000D0A0D0A536D617274636F6E6669672047
:104EA00053756363657373210D0A00000D0A0D0AC3
:104EB000536D617274636F6E666967204661696CD9
:104EC000210D0A0010B5012280210E48FCF7E8FEF2
:104ED000012240210B48FCF7E3FE0120FBF71CFFF9
:104EE000002280210748FCF7DBFE0A20FBF714FFB5
:104EF000002240210348FCF7D3FE0120FBF70CFF02
:104F000010BD00000004004810B5002280210A48AE
:104F1000FCF7C6FE012240210748FCF7C1FE012034
:104F2000FBF7FAFE0A20FBF7F7FE01228021024878
:104F3000FCF7B6FE10BD00000004004810B502F0FA
:104F4000C9FA02F01FFEBDE8104002F0D1BA00B568
:104F500097B0442106A8FBF712FA142101A8FBF729
:104F60000EFA4FF40070FCF79DFF08B1FBF718FF35
:104F70000120069000040790022010900321119157
:104F800001211291142113910721149102211591ED
:104F9000169106A8FDF734FB08B1FBF701FF0F20BF
:104FA00001900320029000200390049005900421BA
:104FB00001A8FDF789F908B1FBF7F2FE17B000BDB3
:104FC000F0B5314E366806F008062EB92E4E9436EE
:104FD0003668C6F3032003E02B4E3668C6F3031091
:104FE0002A4E56F82000284EB66806F00C0636B158
:104FF000042E07D0082E09D00C2E35D10AE0244EFD
:10500000306034E0234E224F3E6030E0224E204F8D
:105010003E602CE01C4EF66806F003051A4EF6685A
:10502000C6F30216721C022D02D0032D08D103E034
:10503000184EB6FBF2F106E0174EB6FBF2F102E0B5
:10504000B0FBF2F100BF00BF0F4EF668C6F30626B4
:1050500071430D4EF668C6F34166761C7400B1FBD1
:10506000F4F60B4F3E6002E0094E306000BF00BF17
:10507000054EB668C6F30316084FBB5D044E36688E
:10508000DE40034F3E60F0BD001002404482000845
:10509000C80000200024F40000127A002C820008CE
:1050A0000348006840F47000014908607047000040
:1050B00088ED00E010B5002465A166A0FFF7AEFD05
:1050C00063A166A0FFF7AAFD61A166A0FFF7A6FD98
:1050D00000206949488000BF6849C869804768481E
:1050E000C16868A088474FF47A70FCF7D3FC644825
:1050F000416867A001F0C4F95F484088B0F5FA6FD5
:1051000003DB5E49086A804706E05D49486861A1A3
:10511000FBF740F90028DFD100BF57484088B0F5C1
:10512000FA6F0ADA002280214FF09040FCF7B8FDB8
:1051300001245AA001F0A4F90CE0012280214FF0D3
:105140009040FCF7ADFD00245AA001F099F9012030
:105150004A49087100204849488000BF4749C8694A
:1051600080474748C1683BA088476420FCF792FC11
:105170004348416846A001F083F93F484088B0F5B4
:10518000FA6F03DB3D49086A804706E03C494868FE
:105190002FA1FBF7FFF80028E0D000BF012C56D16B
:1051A00050A001F06DF900203349488000BF334919
:1051B000C86980473248C16850A088474FF4FA70E8
:1051C000FCF768FC2E48416831A001F059F92A48E3
:1051D0004088B0F5FA6F0CDB53A001F051F90020C4
:1051E00026490870012280214FF09040FCF758FDBD
:1051F00021E02349486854A1FBF7CCF8A0B154A0A2
:1052000001F03EF912A15AA0FFF708FD5CA15DA0D4
:10521000FFF704FD012019490870002280214FF09A
:105220009040FCF73DFD06E01549486846A1FBF7B4
:10523000B1F80028BBD000BF1148C16855A088470D
:105240004FF4FA70FCF726FC0C49C869804710BD82
:105250004F4B000041540D0A0000000041544530FE
:105260000D0A000041542B43574D4F44455F4355B1
:10527000523D310D0A00000014000020840000207F
:105280002000002041542B43494653520D0A000090
:1052900025730000302E302E302E30004150206318
:1052A0006F6E6E6563742073756363657373210D30
:1052B0000A000000415020636F6E6E6563742066C3
:1052C00061696C2C6175746F20656E7472792053FE
:1052D0006D617274636F6E666967206D6F646521BE
:1052E0000D0A0000436F6E6E6563742054435020B6
:1052F000536572766572210D0A00000041542B43FC
:10530000495053544152543D22544350222C22318F
:1053100031322E37342E3134322E313332222C3882
:105320003634370D0A000000436F6E6E65637420DB
:1053300054435020536572766572204661696C75DE
:105340007265210D0A000000434F4E4E4543540044
:10535000436F6E6E656374205443502053657276BC
:1053600065722053756363657373210D0A00000035
:1053700041542B4349504D4F44453D310D0A0000E7
:105380003E00000041542B43495053454E440D0A02
:10539000000000003937373833414E484533534514
:1053A0004B3855350D0A000010B502F093F803484C
:1053B000FDF775FE02F09CF810BD000018270020D4
:1053C00010B502F087F80348FDF769FE02F090F887
:1053D00010BD0000E824002010B50268184B984268
:1053E00002D0B0F1804F03D122F070024B681A4313
:1053F000134B984208D0B0F1804F05D0114B984222
:1054000002D0114B984203D122F44072CB681A4368
:1054100022F080034C6943EA040202608B68C36295
:105420000B688362064B984205D0064B984202D027
:10543000054B984201D10B6903630123436110BD01
:10544000002C0140004001400044014030B501F013
:105450001F05012404FA05F3046A9C430462046AEC
:1054600001F01F0502FA05F52C43046230BD30B58A
:105470000C46816821F47F4142EA032525432943F4
:10548000816030BD0A46816821F0700142F0070357
:10549000194381607047000030B5056A25F00105A9
:1054A0000562026A43688469194D2C4024F00304A4
:1054B0000D682C4322F002028D682A43154DA84244
:1054C00000D107E0144DA84200D103E0134DA842DB
:1054D00006D100BF22F00802CD682A4322F0040260
:1054E0000C4DA84205D00C4DA84202D00B4DA8424D
:1054F00007D123F4807323F400734D692B438D6926
:105500002B43436084614D684563026230BD0000F7
:105510008FFFFEFF002C014000400140004401408D
:1055200030B5056A25F010050562026A4368846992
:105530001B4D2C4024F440740D6844EA052422F0ED
:1055400020028D6842EA0512164DA84200D107E0FC
:10555000154DA84200D100BF144DA84207D106E066
:1055600022F08002CD6842EA051222F040020D4D81
:10557000A84205D00C4DA84202D00C4DA84209D13A
:1055800023F4806323F400634D6943EA85038D6946
:1055900043EA8503436084614D688563026230BDE0
:1055A000FF8FFFFE002C01400040014000440140FD
:1055B00030B5056A25F480750562026A4368C469DE
:1055C0001B4D2C4024F003040D682C4322F4007280
:1055D0008D6842EA0522174DA84200D107E0164D1A
:1055E000A84200D100BF154DA84207D106E022F421
:1055F0000062CD6842EA052222F480620D4DA84285
:1056000005D00D4DA84202D00C4DA84209D123F47B
:10561000805323F400534D6943EA05138D6943EA2F
:1056200005134360C4614D68C563026230BD00006C
:105630008FFFFEFF002C014000400140004401406C
:1056400030B5056A25F480550562036A4468C2696D
:105650000F4D2A4022F440720D6842EA052223F4DD
:1056600000538D6843EA05330A4DA84205D00A4D20
:10567000A84202D0094DA84204D124F480444D69C7
:1056800044EA85144460C2614D680564036230BD1C
:10569000FF8FFFFE002C014000400140004401400C
:1056A00030B5056A25F480350562026A4368446DA9
:1056B0000E4D2C400D682C4322F400320D8942EA35
:1056C00005420B4DA84205D00A4DA84202D00A4D12
:1056D000A84204D123F480334D6943EA0523436093
:1056E00044654D688565026230BD00008FFFFEFF96
:1056F000002C0140004001400044014030B5056AE3
:1057000025F480150562026A4468436D0E4D2B40F6
:105710000D6843EA052322F400120D8942EA05527E
:105720000A4DA84205D00A4DA84202D0094DA84210
:1057300004D124F480244D6944EA852444604365FF
:105740004D68C565026230BDFF8FFFFE002C014031
:10575000004001400044014030B50B461446026A47
:10576000056A25F001050562816921F0F00141EA31
:10577000041122F00A021A438161026230BD30B581
:105780000B461446056A25F0100505628169026A18
:1057900021F4704141EA043122F0A00242EA0312EE
:1057A0008161026230BD000010B50248FDF7B2FB16
:1057B00010BD0000E824002000B52DED028B87B05D
:1057C000194890ED010A10EE101A0846FAF7FBFD91
:1057D00041EC180B1548007815490978154A1278DC
:1057E000154B1B78CDE90232CDE90410134800783F
:1057F0000D490978CDE90010114953EC182B0868C0
:1058000010A100F04DFE0E4A1068D16888470A20AA
:10581000FCF740F90A4908684021FAF7B0FD07B0E3
:10582000BDEC028B00BD00003C00002064000020A5
:105830005800002070000020A80000204C0000202C
:105840002000002023252E3166A1E62C2564252585
:1058500052482C256425252C256425252C25642CCF
:1058600025642C25642C230090F8241001F00101FC
:1058700039B10168496821F40031826A1143026834
:10588000516090F8241001F00201022907D101684B
:10589000496821F48031C26A11430268516090F86E
:1058A000241001F00401042907D10168496821F49A
:1058B0008021026B11430268516090F8241001F0BE
:1058C0000801082907D10168496821F40041426BA9
:1058D00011430268516090F8241001F01001102962
:1058E00007D10168896821F48051826B11430268F5
:1058F000916090F8241001F02001202907D101685F
:10590000896821F40051C26B11430268916090F8DC
:10591000241001F04001402913D10168496821F4A5
:105920008011026C114302685160016CB1F5801F57
:1059300007D10168496821F4C001426C1143026833
:10594000516090F8241001F08001802907D101688E
:10595000496821F40021826C11430268516070474C
:1059600038B504460020C4F88000FCF79FF90546CE
:105970002068006800F0080008280CD16FF07E4015
:105980002B4600224FF400110090204600F07CFCD2
:1059900008B1032038BD2068006800F00400042826
:1059A0000CD16FF07E402B4600224FF48001009016
:1059B000204600F069FC08B10320EBE72020A06737
:1059C000E0670020206600BF84F8740000BF00BFBD
:1059D000E0E770B50546AC6A0020A4F85A00A4F8C8
:1059E00052002046FDF771FE70BD2DE9F0410546DD
:1059F000AC6AA66FE76F2068806800F0800080289E
:105A000007D1212E05D10020A4F85200204600F035
:105A1000FCF82068806800F04000402807D1222F61
:105A200005D10020A4F85A00204600F0A5F8D4F8CB
:105A3000800040F01000C4F880002046FDF745FECD
:105A4000BDE8F08170B50546AC6A2868006800F0D2
:105A50002000E8BB0020A4F85A0000BF00BF216866
:105A600051E8001F21F48070226842E800010029FB
:105A7000F5D100BF00BF00BF2168083151E8001F09
:105A800021F001002168083141E80002002AF3D129
:105A900000BF00BF00BF2168083151E8001F21F09E
:105AA00040002168083141E80002002AF3D100BF1C
:105AB0002020E067206E01280ED100BF00BF2168C2
:105AC00051E8001F21F01000226842E8000100E0C8
:105AD00002E00029F3D100BF206E012805D1B4F8FF
